{
  "_format": "hh-sol-artifact-1",
  "contractName": "RoundRobin",
  "sourceName": "contracts/RoundRobin.sol",
  "abi": [
    {
      "anonymous": false,
      "inputs": [
        {
          "indexed": true,
          "internalType": "address",
          "name": "owner",
          "type": "address"
        },
        {
          "indexed": true,
          "internalType": "address",
          "name": "approved",
          "type": "address"
        },
        {
          "indexed": true,
          "internalType": "uint256",
          "name": "tokenId",
          "type": "uint256"
        }
      ],
      "name": "Approval",
      "type": "event"
    },
    {
      "anonymous": false,
      "inputs": [
        {
          "indexed": true,
          "internalType": "address",
          "name": "owner",
          "type": "address"
        },
        {
          "indexed": true,
          "internalType": "address",
          "name": "operator",
          "type": "address"
        },
        {
          "indexed": false,
          "internalType": "bool",
          "name": "approved",
          "type": "bool"
        }
      ],
      "name": "ApprovalForAll",
      "type": "event"
    },
    {
      "anonymous": false,
      "inputs": [
        {
          "indexed": true,
          "internalType": "address",
          "name": "from",
          "type": "address"
        },
        {
          "indexed": true,
          "internalType": "address",
          "name": "to",
          "type": "address"
        },
        {
          "indexed": true,
          "internalType": "uint256",
          "name": "tokenId",
          "type": "uint256"
        }
      ],
      "name": "Transfer",
      "type": "event"
    },
    {
      "inputs": [
        {
          "internalType": "address",
          "name": "to",
          "type": "address"
        },
        {
          "internalType": "uint256",
          "name": "tokenId",
          "type": "uint256"
        }
      ],
      "name": "approve",
      "outputs": [],
      "stateMutability": "nonpayable",
      "type": "function"
    },
    {
      "inputs": [
        {
          "internalType": "address",
          "name": "owner",
          "type": "address"
        }
      ],
      "name": "balanceOf",
      "outputs": [
        {
          "internalType": "uint256",
          "name": "",
          "type": "uint256"
        }
      ],
      "stateMutability": "view",
      "type": "function"
    },
    {
      "inputs": [],
      "name": "createPlainRobin",
      "outputs": [],
      "stateMutability": "nonpayable",
      "type": "function"
    },
    {
      "inputs": [
        {
          "internalType": "uint256",
          "name": "tokenId",
          "type": "uint256"
        }
      ],
      "name": "getApproved",
      "outputs": [
        {
          "internalType": "address",
          "name": "",
          "type": "address"
        }
      ],
      "stateMutability": "view",
      "type": "function"
    },
    {
      "inputs": [],
      "name": "getSVG",
      "outputs": [
        {
          "internalType": "string",
          "name": "",
          "type": "string"
        }
      ],
      "stateMutability": "view",
      "type": "function"
    },
    {
      "inputs": [
        {
          "internalType": "address",
          "name": "to",
          "type": "address"
        },
        {
          "internalType": "uint256",
          "name": "robinId",
          "type": "uint256"
        }
      ],
      "name": "inherit",
      "outputs": [],
      "stateMutability": "nonpayable",
      "type": "function"
    },
    {
      "inputs": [
        {
          "internalType": "address",
          "name": "owner",
          "type": "address"
        },
        {
          "internalType": "address",
          "name": "operator",
          "type": "address"
        }
      ],
      "name": "isApprovedForAll",
      "outputs": [
        {
          "internalType": "bool",
          "name": "",
          "type": "bool"
        }
      ],
      "stateMutability": "view",
      "type": "function"
    },
    {
      "inputs": [],
      "name": "name",
      "outputs": [
        {
          "internalType": "string",
          "name": "",
          "type": "string"
        }
      ],
      "stateMutability": "view",
      "type": "function"
    },
    {
      "inputs": [
        {
          "internalType": "uint256",
          "name": "tokenId",
          "type": "uint256"
        }
      ],
      "name": "ownerOf",
      "outputs": [
        {
          "internalType": "address",
          "name": "",
          "type": "address"
        }
      ],
      "stateMutability": "view",
      "type": "function"
    },
    {
      "inputs": [
        {
          "internalType": "address",
          "name": "from",
          "type": "address"
        },
        {
          "internalType": "address",
          "name": "to",
          "type": "address"
        },
        {
          "internalType": "uint256",
          "name": "tokenId",
          "type": "uint256"
        }
      ],
      "name": "safeTransferFrom",
      "outputs": [],
      "stateMutability": "nonpayable",
      "type": "function"
    },
    {
      "inputs": [
        {
          "internalType": "address",
          "name": "from",
          "type": "address"
        },
        {
          "internalType": "address",
          "name": "to",
          "type": "address"
        },
        {
          "internalType": "uint256",
          "name": "tokenId",
          "type": "uint256"
        },
        {
          "internalType": "bytes",
          "name": "_data",
          "type": "bytes"
        }
      ],
      "name": "safeTransferFrom",
      "outputs": [],
      "stateMutability": "nonpayable",
      "type": "function"
    },
    {
      "inputs": [
        {
          "internalType": "address",
          "name": "operator",
          "type": "address"
        },
        {
          "internalType": "bool",
          "name": "approved",
          "type": "bool"
        }
      ],
      "name": "setApprovalForAll",
      "outputs": [],
      "stateMutability": "nonpayable",
      "type": "function"
    },
    {
      "inputs": [
        {
          "internalType": "string",
          "name": "name",
          "type": "string"
        },
        {
          "internalType": "uint256",
          "name": "successorId",
          "type": "uint256"
        }
      ],
      "name": "signing",
      "outputs": [],
      "stateMutability": "nonpayable",
      "type": "function"
    },
    {
      "inputs": [
        {
          "internalType": "bytes4",
          "name": "interfaceId",
          "type": "bytes4"
        }
      ],
      "name": "supportsInterface",
      "outputs": [
        {
          "internalType": "bool",
          "name": "",
          "type": "bool"
        }
      ],
      "stateMutability": "view",
      "type": "function"
    },
    {
      "inputs": [],
      "name": "symbol",
      "outputs": [
        {
          "internalType": "string",
          "name": "",
          "type": "string"
        }
      ],
      "stateMutability": "view",
      "type": "function"
    },
    {
      "inputs": [
        {
          "internalType": "uint256",
          "name": "tokenId",
          "type": "uint256"
        }
      ],
      "name": "tokenURI",
      "outputs": [
        {
          "internalType": "string",
          "name": "",
          "type": "string"
        }
      ],
      "stateMutability": "view",
      "type": "function"
    },
    {
      "inputs": [
        {
          "internalType": "address",
          "name": "from",
          "type": "address"
        },
        {
          "internalType": "address",
          "name": "to",
          "type": "address"
        },
        {
          "internalType": "uint256",
          "name": "tokenId",
          "type": "uint256"
        }
      ],
      "name": "transferFrom",
      "outputs": [],
      "stateMutability": "nonpayable",
      "type": "function"
    }
  ],
  "bytecode": "0x60e0604052600760a090815266766974616c696b60c81b60c05260809081526200002e906008906001620000ab565b503480156200003c57600080fd5b50604080518082018252600a8152692937bab7322937b134b760b11b6020808301918252835180850190945260058452642937b134b760d91b9084015281519192916200008c916000916200010f565b508051620000a29060019060208401906200010f565b50505062000251565b828054828255906000526020600020908101928215620000fd579160200282015b82811115620000fd5782518051620000ec9184916020909101906200010f565b5091602001919060010190620000cc565b506200010b9291506200019a565b5090565b8280546200011d9062000214565b90600052602060002090601f0160209004810192826200014157600085556200018c565b82601f106200015c57805160ff19168380011785556200018c565b828001600101855582156200018c579182015b828111156200018c5782518255916020019190600101906200016f565b506200010b929150620001bb565b808211156200010b576000620001b18282620001d2565b506001016200019a565b5b808211156200010b5760008155600101620001bc565b508054620001e09062000214565b6000825580601f10620001f1575050565b601f016020900490600052602060002090810190620002119190620001bb565b50565b600181811c908216806200022957607f821691505b602082108114156200024b57634e487b7160e01b600052602260045260246000fd5b50919050565b611cf680620002616000396000f3fe608060405234801561001057600080fd5b506004361061010b5760003560e01c8063489187e8116100a257806395d89b411161007157806395d89b411461021d578063a22cb46514610225578063b88d4fde14610238578063c87b56dd1461024b578063e985e9c51461025e57600080fd5b8063489187e8146101ce5780636300af71146101d65780636352211e146101e957806370a08231146101fc57600080fd5b806323b872dd116100de57806323b872dd1461018d5780632b8760cb146101a057806342842e0e146101a857806343bd3d87146101bb57600080fd5b806301ffc9a71461011057806306fdde0314610138578063081812fc1461014d578063095ea7b314610178575b600080fd5b61012361011e3660046115a8565b61029a565b60405190151581526020015b60405180910390f35b6101406102ec565b60405161012f9190611a7a565b61016061015b366004611636565b61037e565b6040516001600160a01b03909116815260200161012f565b61018b61018636600461157f565b610418565b005b61018b61019b366004611491565b61052e565b61018b61055f565b61018b6101b6366004611491565b6105b3565b61018b6101c936600461157f565b6105ce565b61014061066a565b61018b6101e43660046115e0565b610692565b6101606101f7366004611636565b610798565b61020f61020a366004611445565b61080f565b60405190815260200161012f565b610140610896565b61018b610233366004611545565b6108a5565b61018b6102463660046114cc565b6108b0565b610140610259366004611636565b6108e8565b61012361026c36600461145f565b6001600160a01b03918216600090815260056020908152604080832093909416825291909152205460ff1690565b60006001600160e01b031982166380ac58cd60e01b14806102cb57506001600160e01b03198216635b5e139f60e01b145b806102e657506301ffc9a760e01b6001600160e01b03198316145b92915050565b6060600080546102fb90611bbe565b80601f016020809104026020016040519081016040528092919081815260200182805461032790611bbe565b80156103745780601f1061034957610100808354040283529160200191610374565b820191906000526020600020905b81548152906001019060200180831161035757829003601f168201915b5050505050905090565b6000818152600260205260408120546001600160a01b03166103fc5760405162461bcd60e51b815260206004820152602c60248201527f4552433732313a20617070726f76656420717565727920666f72206e6f6e657860448201526b34b9ba32b73a103a37b5b2b760a11b60648201526084015b60405180910390fd5b506000908152600460205260409020546001600160a01b031690565b600061042382610798565b9050806001600160a01b0316836001600160a01b031614156104915760405162461bcd60e51b815260206004820152602160248201527f4552433732313a20617070726f76616c20746f2063757272656e74206f776e656044820152603960f91b60648201526084016103f3565b336001600160a01b03821614806104ad57506104ad813361026c565b61051f5760405162461bcd60e51b815260206004820152603860248201527f4552433732313a20617070726f76652063616c6c6572206973206e6f74206f7760448201527f6e6572206e6f7220617070726f76656420666f7220616c6c000000000000000060648201526084016103f3565b61052983836109da565b505050565b6105383382610a48565b6105545760405162461bcd60e51b81526004016103f390611adf565b610529838383610b3f565b600061056a60065490565b6000818152600760205260408120819055909150610589906001610cdb565b6000828152600760205260409020556105a23382610cee565b6105b0600680546001019055565b50565b610529838383604051806020016040528060008152506108b0565b6000818152600260205260409020546001600160a01b03166106325760405162461bcd60e51b815260206004820152601860248201527f726f62696e206f66206964206973206e6f74206578697374000000000000000060448201526064016103f3565b60008181526007602052604090205461064c906001610cdb565b600082815260076020526040902055610666338383610b3f565b5050565b6060600960405160200161067e919061185c565b604051602081830303815290604052905090565b600061069d82610d08565b9050600083826040516020016106b4929190611712565b60408051601f1981840301815291905260088054600181018255600091909152815191925061070c917ff3f7a9fe364faab93b216da50a3214154f22a0a2b415b23a84c8169e8b636ee390910190602084019061131a565b5060085460005b818110156107905760096008828154811061073e57634e487b7160e01b600052603260045260246000fd5b9060005260206000200160405160200161075992919061174e565b6040516020818303038152906040526009908051906020019061077d92919061131a565b508061078881611bf9565b915050610713565b505050505050565b6000818152600260205260408120546001600160a01b0316806102e65760405162461bcd60e51b815260206004820152602960248201527f4552433732313a206f776e657220717565727920666f72206e6f6e657869737460448201526832b73a103a37b5b2b760b91b60648201526084016103f3565b60006001600160a01b03821661087a5760405162461bcd60e51b815260206004820152602a60248201527f4552433732313a2062616c616e636520717565727920666f7220746865207a65604482015269726f206164647265737360b01b60648201526084016103f3565b506001600160a01b031660009081526003602052604090205490565b6060600180546102fb90611bbe565b610666338383610e22565b6108ba3383610a48565b6108d65760405162461bcd60e51b81526004016103f390611adf565b6108e284848484610ef1565b50505050565b6000818152600260205260409020546060906001600160a01b03166109675760405162461bcd60e51b815260206004820152602f60248201527f4552433732314d657461646174613a2055524920717565727920666f72206e6f60448201526e3732bc34b9ba32b73a103a37b5b2b760891b60648201526084016103f3565b600061097161066a565b9050600061097e84610d08565b61098783610f24565b604051602001610998929190611786565b60405160208183030381529060405290506109b281610f24565b6040516020016109c291906119f8565b60405160208183030381529060405292505050919050565b600081815260046020526040902080546001600160a01b0319166001600160a01b0384169081179091558190610a0f82610798565b6001600160a01b03167f8c5be1e5ebec7d5bd14f71427d1e84f3dd0314c0f7b2291e5b200ac8c7c3b92560405160405180910390a45050565b6000818152600260205260408120546001600160a01b0316610ac15760405162461bcd60e51b815260206004820152602c60248201527f4552433732313a206f70657261746f7220717565727920666f72206e6f6e657860448201526b34b9ba32b73a103a37b5b2b760a11b60648201526084016103f3565b6000610acc83610798565b9050806001600160a01b0316846001600160a01b03161480610b075750836001600160a01b0316610afc8461037e565b6001600160a01b0316145b80610b3757506001600160a01b0380821660009081526005602090815260408083209388168352929052205460ff165b949350505050565b826001600160a01b0316610b5282610798565b6001600160a01b031614610bb65760405162461bcd60e51b815260206004820152602560248201527f4552433732313a207472616e736665722066726f6d20696e636f72726563742060448201526437bbb732b960d91b60648201526084016103f3565b6001600160a01b038216610c185760405162461bcd60e51b8152602060048201526024808201527f4552433732313a207472616e7366657220746f20746865207a65726f206164646044820152637265737360e01b60648201526084016103f3565b610c236000826109da565b6001600160a01b0383166000908152600360205260408120805460019290610c4c908490611b7b565b90915550506001600160a01b0382166000908152600360205260408120805460019290610c7a908490611b30565b909155505060008181526002602052604080822080546001600160a01b0319166001600160a01b0386811691821790925591518493918716917fddf252ad1be2c89b69c2b068fc378daa952ba7f163c4a11628f55a4df523b3ef91a4505050565b6000610ce78284611b30565b9392505050565b610666828260405180602001604052806000815250611098565b606081610d2c5750506040805180820190915260018152600360fc1b602082015290565b8160005b8115610d565780610d4081611bf9565b9150610d4f9050600a83611b48565b9150610d30565b60008167ffffffffffffffff811115610d7f57634e487b7160e01b600052604160045260246000fd5b6040519080825280601f01601f191660200182016040528015610da9576020820181803683370190505b5090505b8415610b3757610dbe600183611b7b565b9150610dcb600a86611c14565b610dd6906030611b30565b60f81b818381518110610df957634e487b7160e01b600052603260045260246000fd5b60200101906001600160f81b031916908160001a905350610e1b600a86611b48565b9450610dad565b816001600160a01b0316836001600160a01b03161415610e845760405162461bcd60e51b815260206004820152601960248201527f4552433732313a20617070726f766520746f2063616c6c65720000000000000060448201526064016103f3565b6001600160a01b03838116600081815260056020908152604080832094871680845294825291829020805460ff191686151590811790915591519182527f17307eab39ab6107e8899845ad3d59bd9653f200f220920489ca2b5937696c31910160405180910390a3505050565b610efc848484610b3f565b610f08848484846110cb565b6108e25760405162461bcd60e51b81526004016103f390611a8d565b6060815160001415610f4457505060408051602081019091526000815290565b6000604051806060016040528060408152602001611c816040913990506000600384516002610f739190611b30565b610f7d9190611b48565b610f88906004611b5c565b90506000610f97826020611b30565b67ffffffffffffffff811115610fbd57634e487b7160e01b600052604160045260246000fd5b6040519080825280601f01601f191660200182016040528015610fe7576020820181803683370190505b509050818152600183018586518101602084015b81831015611053576003830192508251603f8160121c168501518253600182019150603f81600c1c168501518253600182019150603f8160061c168501518253600182019150603f8116850151825350600101610ffb565b60038951066001811461106d576002811461107e5761108a565b613d3d60f01b60011983015261108a565b603d60f81b6000198301525b509398975050505050505050565b6110a283836111d8565b6110af60008484846110cb565b6105295760405162461bcd60e51b81526004016103f390611a8d565b60006001600160a01b0384163b156111cd57604051630a85bd0160e11b81526001600160a01b0385169063150b7a029061110f903390899088908890600401611a3d565b602060405180830381600087803b15801561112957600080fd5b505af1925050508015611159575060408051601f3d908101601f19168201909252611156918101906115c4565b60015b6111b3573d808015611187576040519150601f19603f3d011682016040523d82523d6000602084013e61118c565b606091505b5080516111ab5760405162461bcd60e51b81526004016103f390611a8d565b805181602001fd5b6001600160e01b031916630a85bd0160e11b149050610b37565b506001949350505050565b6001600160a01b03821661122e5760405162461bcd60e51b815260206004820181905260248201527f4552433732313a206d696e7420746f20746865207a65726f206164647265737360448201526064016103f3565b6000818152600260205260409020546001600160a01b0316156112935760405162461bcd60e51b815260206004820152601c60248201527f4552433732313a20746f6b656e20616c7265616479206d696e7465640000000060448201526064016103f3565b6001600160a01b03821660009081526003602052604081208054600192906112bc908490611b30565b909155505060008181526002602052604080822080546001600160a01b0319166001600160a01b03861690811790915590518392907fddf252ad1be2c89b69c2b068fc378daa952ba7f163c4a11628f55a4df523b3ef908290a45050565b82805461132690611bbe565b90600052602060002090601f016020900481019282611348576000855561138e565b82601f1061136157805160ff191683800117855561138e565b8280016001018555821561138e579182015b8281111561138e578251825591602001919060010190611373565b5061139a92915061139e565b5090565b5b8082111561139a576000815560010161139f565b600067ffffffffffffffff808411156113ce576113ce611c54565b604051601f8501601f19908116603f011681019082821181831017156113f6576113f6611c54565b8160405280935085815286868601111561140f57600080fd5b858560208301376000602087830101525050509392505050565b80356001600160a01b038116811461144057600080fd5b919050565b600060208284031215611456578081fd5b610ce782611429565b60008060408385031215611471578081fd5b61147a83611429565b915061148860208401611429565b90509250929050565b6000806000606084860312156114a5578081fd5b6114ae84611429565b92506114bc60208501611429565b9150604084013590509250925092565b600080600080608085870312156114e1578081fd5b6114ea85611429565b93506114f860208601611429565b925060408501359150606085013567ffffffffffffffff81111561151a578182fd5b8501601f8101871361152a578182fd5b611539878235602084016113b3565b91505092959194509250565b60008060408385031215611557578182fd5b61156083611429565b915060208301358015158114611574578182fd5b809150509250929050565b60008060408385031215611591578182fd5b61159a83611429565b946020939093013593505050565b6000602082840312156115b9578081fd5b8135610ce781611c6a565b6000602082840312156115d5578081fd5b8151610ce781611c6a565b600080604083850312156115f2578182fd5b823567ffffffffffffffff811115611608578283fd5b8301601f81018513611618578283fd5b611627858235602084016113b3565b95602094909401359450505050565b600060208284031215611647578081fd5b5035919050565b60008151808452611666816020860160208601611b92565b601f01601f19169290920160200192915050565b8054600090600181811c908083168061169457607f831692505b60208084108214156116b457634e487b7160e01b86526022600452602486fd5b8180156116c857600181146116d957611706565b60ff19861689528489019650611706565b60008881526020902060005b868110156116fe5781548b8201529085019083016116e5565b505084890196505b50505050505092915050565b60008351611724818460208801611b92565b602360f81b9083019081528351611742816001840160208801611b92565b01600101949350505050565b600061175a828561167a565b621e381f60e91b8152611770600382018561167a565b631e17b81f60e11b815260040195945050505050565b757b226e616d65223a2022526f756e64526f62696e202360501b815282516000906117b8816016850160208801611b92565b7f222c20226465736372697074696f6e223a2022526f756e64526f62696e2069736016918401918201527f20612066756c6c206f6e2d636861696e20526f62696e2e222c2022696d61676560368201527f223a2022646174613a696d6167652f7376672b786d6c3b6261736536342c000060568201528351611841816074840160208801611b92565b61227d60f01b60749290910191820152607601949350505050565b7f3c7376672077696474683d2233303022206865696768743d223330302220766981527f6577426f783d22302c20302c203330302c203330302220786d6c6e733d22687460208201527f74703a2f2f7777772e77332e6f72672f323030302f737667223e00000000000060408201527f3c726563742077696474683d223130302522206865696768743d223130302522605a82015271103334b6361e9111b31932b2b1b11110179f60711b607a8201527f3c666f726569676e4f626a65637420783d2231302220793d2231302220776964608c820152753a341e91191c1811103432b4b3b43a1e91191c18111f60511b60ac8201527f3c64697620786d6c6e733d22687474703a2f2f7777772e77332e6f72672f313960c28201527f39392f7868746d6c22207374796c653d22666f6e742d73697a653a782d736d6160e28201527336361dba32bc3a16b4b73232b73a1d18b2b6911f60611b61010282015260006119cb61011683018461167a565b7f3c2f6469763e3c2f666f726569676e4f626a6563743e3c2f7376673e000000008152601c019392505050565b7f646174613a6170706c69636174696f6e2f6a736f6e3b6261736536342c000000815260008251611a3081601d850160208701611b92565b91909101601d0192915050565b6001600160a01b0385811682528416602082015260408101839052608060608201819052600090611a709083018461164e565b9695505050505050565b602081526000610ce7602083018461164e565b60208082526032908201527f4552433732313a207472616e7366657220746f206e6f6e20455243373231526560408201527131b2b4bb32b91034b6b83632b6b2b73a32b960711b606082015260800190565b60208082526031908201527f4552433732313a207472616e736665722063616c6c6572206973206e6f74206f6040820152701ddb995c881b9bdc88185c1c1c9bdd9959607a1b606082015260800190565b60008219821115611b4357611b43611c28565b500190565b600082611b5757611b57611c3e565b500490565b6000816000190483118215151615611b7657611b76611c28565b500290565b600082821015611b8d57611b8d611c28565b500390565b60005b83811015611bad578181015183820152602001611b95565b838111156108e25750506000910152565b600181811c90821680611bd257607f821691505b60208210811415611bf357634e487b7160e01b600052602260045260246000fd5b50919050565b6000600019821415611c0d57611c0d611c28565b5060010190565b600082611c2357611c23611c3e565b500690565b634e487b7160e01b600052601160045260246000fd5b634e487b7160e01b600052601260045260246000fd5b634e487b7160e01b600052604160045260246000fd5b6001600160e01b0319811681146105b057600080fdfe4142434445464748494a4b4c4d4e4f505152535455565758595a6162636465666768696a6b6c6d6e6f707172737475767778797a303132333435363738392b2fa2646970667358221220cacae4b7a51634982ce1dcb7de1b9540c05c7b6474d6d8cee7b90089a858882864736f6c63430008040033",
  "linkReferences": {},
  "deployedLinkReferences": {}
}